:100000000C94F4000C9413010C9413010C94130140
:100010000C9413010C9413010C9413010C94130110
:100020000C9413010C9413010C9413010C94130100
:100030000C9413010C9413010C9413010C941301F0
:100040000C9413010C9413010C9413010C941301E0
:100050000C9413010C9413010C9413010C941301D0
:100060000C9413010C9413010C9413010C941301C0
:100070000C9413010C9413010C9413010C941301B0
:100080000C9413010C9413010C9413010C941301A0
:100090000C9413010C9413010C9413010C94130190
:1000A0000C9413010C9413010C9413010C94130180
:1000B0000C9413010C9413010C9413010C9426045A
:1000C0000C9413010C9413010C9413010C94130160
:1000D0000C9413010C9413010C9413010C94130150
:1000E0000C9413010C9413010C9413010C94130140
:1000F0000C9413010C9413010C9413010C94130130
:100100000C9430050C9413010C9413010C941301FE
:100110000C9413010C9413010C9413010C9413010F
:100120000C9413010C9413010C9413010C941301FF
:100130000C9413010C9413010C9413010C941301EF
:100140000C9413010C9413010C9413010C941301DF
:100150000C9413010C9413010C9413010C941301CF
:100160000C9413010C9413010C9413010C941301BF
:100170000C9413010C9413010C9413010C941301AF
:100180000C9413010C9413010C9413010C9413019F
:100190000C9413010C9413010C9413010C9413018F
:1001A0000C9413010C9413010C9413010C9413017F
:1001B0000C9413010C9413010C9413010C9413016F
:1001C0000C9413010C9413010C9413010C9413015F
:1001D0000C9413010C9413010C9413010C943D0422
:1001E0000C9413010C94130111241FBECFEFCDBF4B
:1001F000DFE2DEBF10E2A0E0B0E2E8E5F8E100E017
:100200000BBF02C007900D92AA34B107D9F720E2C4
:10021000AAE4B0E201C01D92A23EB207E1F70E943B
:1002200013060C942A0C0C941A040F939C019FB78C
:10023000F8941BBEF90108ED04BF60839FBF0F91C6
:100240000895CF93C82F8A3019F48DE00E942101C0
:100250008091A10B85FFFCCFC093A00B80E090E0C4
:10026000CF9108958091562091E084FF03C0909330
:10027000850602C09093860692E083FF03C09093A8
:10028000850602C09093860694E082FF03C0909397
:10029000850602C09093860698E081FF03C0909384
:1002A000850602C09093860680FF04C080E180939B
:1002B000850603C080E1809386068091552090E2F8
:1002C00087FF03C09093850602C09093860690E452
:1002D00086FF03C09093850602C09093860690E83F
:1002E00085FF03C09093850602C09093860691E037
:1002F00084FF03C09093A50602C09093A60692E0E7
:1003000083FF03C09093A50602C09093A60690E2D7
:1003100082FF03C09093450602C09093460698E082
:1003200081FF03C09093450602C09093460680FF6C
:1003300004C080E18093450603C080E180934606B7
:100340008091542090E187FF03C09093660602C01D
:100350009093650690E286FF03C09093660602C004
:100360009093650690E485FF03C09093660602C0F3
:100370009093650690E884FF03C09093660602C0E0
:100380009093650691E083FF03C09093660602C0D8
:100390009093650692E082FF03C09093660602C0C8
:1003A0009093650694E081FF03C09093660602C0B7
:1003B0009093650680FF04C088E0809366060895E8
:1003C00088E0809365060895CF93C091D320C11132
:1003D0000FC06EEE72E080E00E94D60588E1809347
:1003E000562085E0809355200E94320181E031C083
:1003F000C130B1F480E00E94EB05882309F4FAC112
:100400006EEE72E080E00E94D6058EE18093562069
:10041000C2E0C09355200E943201C093D320EAC1AC
:10042000C230D1F480E00E94EB05882309F4E2C1D8
:100430006EEE72E080E00E94D60587E08093562041
:1004400084E88093552081E0809354200E943201FB
:1004500083E08093D320CEC1C330C1F480E00E94FA
:10046000EB05882309F4C6C16EEE72E080E00E94BD
:10047000D60581E08093562080EE8093552082E05F
:10048000809354200E94320184E0E3CFC430B1F461
:1004900080E00E94EB05882309F4ACC16EEE72E0A7
:1004A00080E00E94D605109256208CE7809355205C
:1004B000C09354200E94320185E0CBCFC530A9F40F
:1004C00080E00E94EB05882309F494C16EEE72E08F
:1004D00080E00E94D60588E18093552088E08093D3
:1004E00054200E94320186E0B4CFC630A9F480E0E7
:1004F0000E94EB05882309F47DC16EEE72E080E076
:100500000E94D60584E08093552080EF809354208C
:100510000E94320187E09DCFC730F1F480E00E9455
:10052000EB05882309F466C167E771E080E00E946B
:10053000D60560EA7FE081E00E94D6051092562041
:1005400010925520109254200E9432011092512096
:100550001092502088E07DCFC83009F04BC18091C7
:10056000562080934F208091552080934E2080917B
:10057000542080934D2080E00E94EB058823E1F118
:10058000909151209F5F90935120953098F48091E5
:1005900054208F70992301F1913011F480681CC0B0
:1005A000923011F4806C18C0943011F0806E14C039
:1005B000806F12C0993098F480915420953019F4CE
:1005C0008F77806709C0963019F48F73806304C0F9
:1005D000983049F08F7180618093542008C09D301D
:1005E00020F4809154208F70F7CF1092512067E74C
:1005F00071E080E00E94D60581E00E94EB0588232F
:1006000011F1809150208F5F843018F48093502036
:1006100002C010925020809155208C7F80935520ED
:100620009091502090FF03C082608093552091FFED
:1006300005C08091552081608093552060EA7FE05D
:1006400081E00E94D60580916720909168202091DA
:10065000552092FF02C0226007C040916320509154
:10066000642052FF03C02D7F2093552020915520F8
:1006700093FF02C0216007C0409163205091642025
:1006800053FF03C02E7F20935520109256202091B7
:10069000552027702093552030915420307F86FDBF
:1006A00038603093542087FF05C030915420346067
:1006B0003093542090FF05C0309154203260309325
:1006C000542091FF05C03091542031603093542064
:1006D00080FF03C030E13093562081FF05C0309188
:1006E000562038603093562082FF05C03091562046
:1006F00034603093562083FF05C03091562032601D
:100700003093562084FF05C03091562031603093DD
:10071000562085FF03C020682093552020915D203E
:10072000213059F420915F203091602053E03695BC
:1007300027955A95E1F72093522020915E20213091
:1007400059F4209161203091622043E0369527953D
:100750004A95E1F72093532020915220263420F42B
:1007600020915520206405C02D3828F02091552077
:1007700020622093552020915320243620F420918C
:100780005520206105C0233828F02091552028608D
:100790002093552094FF0AC068EB7BE082E00E9422
:1007A000D6058091552084608093552082E00E9478
:1007B000EB05882329F0809155208B7F809355206D
:1007C000809167209091682095FD1092D3209091A0
:1007D0004F208091562098130BC090914E2080910D
:1007E0005520981305C090914D2080915420981366
:1007F0000E9432019FB7F894809169209FBF88239F
:1008000081F01092562010925520109254200E9490
:10081000320180E994E08093D4209093D520109207
:10082000D320CF9108958093D4209093D520109217
:10083000D32008951F920F920FB60F9211240C949B
:1008400000000F900FBE0F901F9018951F920F92EF
:100850000FB60F9211248F939F938091D620909181
:10086000D72001968093D6209093D7209F918F9187
:100870000F900FBE0F901F9018951F920F920FB6FA
:100880000F9211240BB60F928F93EF93FF938091E9
:1008900069208034C8F4E0916B20F0E08091A00BD7
:1008A000E359FF4D808380916B208F5F80936B2095
:1008B00080916B20803410F010926B208091692021
:1008C0008F5F8093692004C08091A00B80936A2081
:1008D000FF91EF918F910F900BBE0F900FBE0F9075
:1008E0001F9018952FB7F894809169208823B1F054
:1008F000E0916C20F0E0E359FF4D808190916C20F5
:100900009F5F90936C2090916C20903410F0109227
:100910006C20909169209150909369202FBF089589
:100920000F931F93CF93DF9380915D20813059F413
:1009300080915F209091602033E0969587953A955D
:10094000E1F78093522080915E20813059F48091AC
:1009500061209091622023E0969587952A95E1F792
:100960008093532084E00E94EB05811110924C206B
:10097000C0E0D2E011E003E09FB7F89480916920D5
:100980009FBF882339F1C11127C067E771E084E078
:100990000E94D6050E94720490914C20913081F003
:1009A00050F0923091F0933039F7809354201092A8
:1009B0004C20C1E0E1CF8234F9F610934C20DCCF1B
:1009C00080935620D0934C20D7CF8093552000930E
:1009D0004C20D2CFCC2311F10E9432018091AD2066
:1009E00081111CC081E48093AF2080916720909199
:1009F00068209093B0208093B1201092B220109282
:100A0000B320809153208093B42080915220809312
:100A1000B52087E08093AD201092AE208091AD206C
:100A20008823C9F08091AD208823A9F00E943A055F
:100A3000882389F0E091AE2081E08E0F8093AE2074
:100A4000F0E0E155FF4D80810E9440058091AD208E
:100A500081508093AD20DF91CF911F910F91089528
:100A60001F920F920FB60F9211240F900FBE0F908E
:100A70001F9018958091A10B85FB882780F9089518
:100A80009091A10B95FFFCCF8093A00B08958091CE
:100A9000A00B08958091A10B881F8827881F0895B7
:100AA0000E944A058823E1F308950E944A0588239D
:100AB00019F08091A00BF9CF08951092A40B08951E
:100AC000E0E7F0E086818F7E8683E0EAF6E088E06A
:100AD0008583818384E08283E0EAFBE014821782CD
:100AE00080E48683848184608483138283E08583A9
:100AF0008481886184830C9455058091C209881F84
:100B00008827881F08958093C3098091C20987FFB1
:100B1000FCCF8091C3090895CF93DF9300D0CDB768
:100B2000DEB789839A8389819A819C01215031099A
:100B300029833A83892B59F000000000000000004F
:100B4000000000000000000000000000ECCF0F904B
:100B50000F90DF91CF910895E0E6F6E080EF868375
:100B600080EB818380E48283A0E7B0E014968C91CF
:100B70001497877F14968C9388E1868B80E1858318
:100B8000E0ECF9E011828EE7808308959FB7F89436
:100B9000E82FF0E02091D6203091D720EE0FFF1FF4
:100BA000E753FF4D208331839FBF08952FB7F894FB
:100BB00090E04091D6205091D720880F991FFC01DA
:100BC000E753FF4D40835183FC01E154FF4D6083A7
:100BD00071832FBF08954FB7F8942091D62030919C
:100BE000D72090E0880F991FFC01E753FF4D01903B
:100BF000F081E02DDC01A154BF4D6D917C91C901C4
:100C00008E1B9F0B4FBF8617970710F081E008954A
:100C100080E00895E82FF0E0EE0FFF1FE154FF4D54
:100C2000108211820895F89488E380934606809399
:100C300041068FEF80936506809361068093860658
:100C40008093810683E08093A6068093A10610928C
:100C5000520010925500109256001092530089E0F5
:100C6000809350008091510083FFFCCF60E081E4CD
:100C700090E00E94150163E080E490E00E9415017D
:100C800084E08093430061E083E590E00E941501D9
:100C9000809150008E7F8093500061E086E990E063
:100CA0000E9415010E9460058FB7F8941092692088
:100CB00010926B2010926C201092AE201092AD20FA
:100CC00090E29093A30B8FBF809171008D7F8093F2
:100CD00071008FE08093020680E18093010290937F
:100CE0000202C7E0C093040282E08093200283E105
:100CF0008093210210922202D1E0D0930002109240
:100D000058201092592010925A2010925B20109275
:100D1000572010925F201092602010925D20109258
:100D200061201092622010925E2010925C208091CF
:100D3000200280688093200280EE8093020688E57E
:100D40008093150680931606809317061FEF109365
:100D500022061093B00080933006C0934206809321
:100D6000500680935106809352061092672010928D
:100D7000682010926520109266206EE270E083E099
:100D80000E94D6051092D6201092D720809175002F
:100D90008E7F809375001092280A1092290A109273
:100DA000200A1092210A8AE09AE18093260A909301
:100DB000270A1092010A10930C0AD093060A109287
:100DC000070AD093000A60E070E081E291E00E949F
:100DD000DA07C093A20078948FE38093780087E0CD
:100DE00090E29F938F9383E190E29F938F930E9471
:100DF000250884EE91E08093D4209093D520109222
:100E0000D3200F900F900F900F9014E0C2E003E1F9
:100E10007BE0F72E10925D2010925E2080912302DD
:100E200080FF73C0809110029091110220910020E8
:100E3000222321F021502093002067C097FF02C099
:100E400080E090E0092E000CAA0BBB0B40915820CB
:100E50005091592060915A2070915B20840F951F0A
:100E6000A61FB71F8093582090935920A0935A2013
:100E7000B0935B20209157202F5F2093572028307C
:100E8000D0F140915C20242F30E0F901EE0FFF1FDC
:100E9000E15AFF4D63E0B695A795979587956A95BA
:100EA000D1F780839183F901E35AFF4DD0831092EB
:100EB0005720109300201092582010925920109221
:100EC0005A2010925B2081E0840F823018F48093C6
:100ED0005C2002C010925C2080915C20882339F055
:100EE000813049F4C0932002F092210204C0C093E3
:100EF00020020093210280912302816080932302CB
:100F000080912002806880932002809167209091D8
:100F1000682080934A2090934B2083E00E94EB0549
:100F2000882349F120910806229526952770809103
:100F3000280638E0839FC0011124AC01422B9A019E
:100F4000909148069670892F90E0982F8827990FE6
:100F5000822B932B2091480620FD9061209128063A
:100F600027FD906280936720909368206EE270E086
:100F700083E00E94D60580914A2090914B202091D9
:100F8000672030916820AC0140955095422353234F
:100F900040936520509366202095309582239323BB
:100FA0008093632090936420E091D420F091D52029
:100FB000099530CF0F931F93CF93DF93009731F4B0
:100FC0006115710519F480E090E03AC08B01EC01E5
:100FD0006EE070E081E090E00E942E0AFC01892B17
:100FE00091F380E883830115110571F0028713875F
:100FF00081E883838091D8209091D920892B21F496
:10100000E093D820F093D9202097C9F0C087D187EA
:101010008381826083838091DA209091DB20892B09
:1010200071F4E093DA20F093DB208091DC20909142
:10103000DD20892B21F4E093DC20F093DD20CF012B
:10104000DF91CF911F910F910895CF93DF93CDB78B
:10105000DEB7AE014B5F5F4FFA0161917191AF0155
:101060008091DA209091DB200E943908DF91CF91A6
:1010700008952F923F924F925F926F927F928F923C
:101080009F92AF92BF92CF92DF92EF92FF920F9317
:101090001F93CF93DF93CDB7DEB72C97CDBFDEBFC5
:1010A0007C016B018A01FC0116821782838181FF1A
:1010B000BDC1CE0101964C01F7019381F60193FD6C
:1010C000859193FF81916F01882309F4ABC185322B
:1010D00039F493FD859193FF81916F01853229F455
:1010E000B70190E00E94940BE7CF512C312C20E007
:1010F0002032A0F48B3269F030F4803259F0833220
:1011000069F420612CC08D3239F0803339F42160CC
:1011100026C02260246023C0286021C027FD27C08C
:1011200030ED380F3A3078F426FF06C0FAE05F9EC3
:10113000300D1124532E13C08AE0389E300D112437
:10114000332E20620CC08E3221F426FD6BC1206448
:1011500006C08C3611F4206802C0883641F4F601CE
:1011600093FD859193FF81916F018111C1CF982FDC
:101170009F7D9554933028F40C5F1F4FFFE3F98354
:101180000DC0833631F0833771F0833509F05BC0D1
:1011900022C0F801808189830E5F1F4F442443944D
:1011A000512C540115C03801F2E06F0E711CF8018A
:1011B000A080B18026FF03C0652D70E002C06FEFF4
:1011C0007FEFC5012C870E94890B2C0183012C85A0
:1011D0002F77222E17C03801F2E06F0E711CF80134
:1011E000A080B18026FF03C0652D70E002C06FEFC4
:1011F0007FEFC5012C870E94770B2C012C8520687E
:10120000222E830123FC1BC0832D90E04816590633
:10121000B0F4B70180E290E00E94940B3A94F4CFCE
:10122000F50127FC859127FE81915F01B70190E0D0
:101230000E94940B31103A94F1E04F1A5108411476
:10124000510471F7E5C0843611F0893639F5F8019B
:1012500027FF07C060817181828193810C5F1F4FDE
:1012600008C060817181072E000C880B990B0E5FFE
:101270001F4F2F76722E97FF09C09095809570951D
:1012800061957F4F8F4F9F4F2068722E2AE030E08C
:10129000A4010E94CC0BA82EA81844C0853729F4BD
:1012A0002F7EB22E2AE030E025C0F22FF97FBF2E2C
:1012B0008F36C1F018F4883579F0B4C0803719F052
:1012C000883721F0AFC02F2F2061B22EB4FE0DC0A1
:1012D0008B2D8460B82E09C024FF0AC09F2F966012
:1012E000B92E06C028E030E005C020E130E002C0A1
:1012F00020E132E0F801B7FE07C060817181828190
:1013000093810C5F1F4F06C06081718180E090E087
:101310000E5F1F4FA4010E94CC0BA82EA818FB2D16
:10132000FF777F2E76FE0BC0372D3E7FA51450F43D
:1013300074FE0AC072FC08C0372D3E7E05C0BA2C70
:10134000372D03C0BA2C01C0B52C34FF0DC0FE01EF
:10135000EA0DF11D8081803311F4397E09C032FF1E
:1013600006C0B394B39404C0832F867809F0B39475
:1013700033FD13C030FF06C05A2CB31418F4530CBD
:101380005B18B32CB31468F4B70180E290E03C879B
:101390000E94940BB3943C85F5CFB31410F43B1822
:1013A00001C0312C34FF12C0B70180E390E03C87CC
:1013B0000E94940B3C8532FF17C031FD03C088E7C3
:1013C00090E002C088E590E0B7010CC0832F8678DA
:1013D00059F031FF02C08BE201C080E237FD8DE29F
:1013E000B70190E00E94940BA51438F4B70180E394
:1013F00090E00E94940B5A94F7CFAA94F401EA0D5E
:10140000F11D8081B70190E00E94940BA110F5CFEF
:10141000332009F451CEB70180E290E00E94940B92
:101420003A94F6CFF7018681978102C08FEF9FEF44
:101430002C96CDBFDEBFDF91CF911F910F91FF9012
:10144000EF90DF90CF90BF90AF909F908F907F9064
:101450006F905F904F903F902F9008950F931F9340
:10146000CF93DF93869F8001879F100D969F100D6D
:101470001124C8010E944A0AEC01009729F0A80132
:1014800060E070E00E94820BCE01DF91CF911F914E
:101490000F910895CF93DF938230910510F482E08D
:1014A00090E0E091E020F091E12020E030E0C0E029
:1014B000D0E0309711F14081518148175907C0F0B1
:1014C0004817590761F482819381209719F08A8324
:1014D0009B832BC08093E0209093E12026C02115B0
:1014E000310519F04217530718F49A01BE01DF01C4
:1014F000EF010280F381E02DDCCF2115310509F1E8
:10150000281B390B2430310590F412968D919C9153
:1015100013976115710521F0FB018283938304C049
:101520008093E0209093E120FD01329644C0FD01BC
:10153000E20FF31F81939193225031092D933C9335
:101540003AC02091DE203091DF20232B41F42091FE
:101550000320309104202093DE203093DF2020915F
:101560000120309102202115310541F42DB73EB7FD
:101570004091052050910620241B350BE091DE2080
:10158000F091DF20E217F307A0F42E1B3F0B281782
:10159000390778F0AC014E5F5F4F2417350748F0EC
:1015A0004E0F5F1F4093DE205093DF208193919375
:1015B00002C0E0E0F0E0CF01DF91CF9108950F93FA
:1015C0001F93CF93DF93009709F48CC0FC013297EF
:1015D000128213820091E0201091E1200115110583
:1015E00081F420813181820F931F2091DE20309180
:1015F000DF202817390779F5E093DE20F093DF200C
:1016000071C0D80140E050E0AE17BF0750F4129609
:101610002D913C911397AD012115310509F1D901A7
:10162000F3CF9D01DA012283338360817181860FBC
:10163000971F8217930769F4EC0128813981260FDF
:10164000371F2E5F3F4F208331838A819B818283A6
:101650009383452B29F4E093E020F093E12042C0EE
:101660001296ED93FC931397ED01499159919E01C8
:10167000240F351FE217F30771F480819181840FE5
:10168000951F02968D939C93119782819381129658
:101690008D939C931397E0E0F0E0D80112968D9122
:1016A0009C911397009719F0F8018C01F6CF8D915A
:1016B0009C9198012E5F3F4F820F931F2091DE2057
:1016C0003091DF202817390769F4309729F41092F8
:1016D000E0201092E12002C0128213820093DE20EB
:1016E0001093DF20DF91CF911F910F910895FC019E
:1016F0000590615070400110D8F7809590958E0F3D
:101700009F1F0895DC0101C06D9341505040E0F7E8
:101710000895FC016150704001900110D8F7809548
:1017200090958E0F9F1F08950F931F93CF93DF9374
:10173000FB01238121FD03C08FEF9FEF28C022FF13
:1017400016C046815781248135814217530744F4DE
:10175000A081B1819D012F5F3F4F208331838C9306
:10176000268137812F5F3F4F2683378310C0EB01DF
:10177000092F182F0084F185E02D0995892BE1F6BA
:101780008E819F8101968E839F83812F902FDF9181
:10179000CF911F910F910895FA01AA27283051F196
:1017A000203181F1E8946F936E7F6E5F7F4F8F4F92
:1017B0009F4FAF4FB1E03ED0B4E03CD0670F781FF1
:1017C000891F9A1FA11D680F791F8A1F911DA11DD6
:1017D0006A0F711D811D911DA11D20D009F468940F
:1017E0003F912AE0269F11243019305D3193DEF6B7
:1017F000CF010895462F4770405D4193B3E00FD06D
:10180000C9F7F6CF462F4F70405D4A3318F0495D57
:1018100031FD4052419302D0A9F7EACFB4E0A6953A
:101820009795879577956795BA95C9F7009761055C
:10183000710508959B01AC010A2E069457954795B2
:1018400037952795BA95C9F7620F731F841F951FA7
:08185000A01D0895F894FFCFDC
:10185800040000E22020004170722032362032302D
:101868003136000A2A2A50656F706C652773204745
:101878006C6F72696F7573205645433920436F63E7
:101888006B70697420436F6E74726F6C6C65722A2A
:0A1898002A0A544D420A25730A0083
:00000001FF
