:100000000C94F4000C9413010C9413010C94130140
:100010000C9413010C9413010C9413010C94130110
:100020000C9413010C9413010C9413010C94130100
:100030000C9413010C9413010C9413010C941301F0
:100040000C9413010C9413010C9413010C941301E0
:100050000C9413010C9413010C9413010C941301D0
:100060000C9413010C9413010C9413010C941301C0
:100070000C9413010C9413010C9413010C941301B0
:100080000C9413010C9413010C9413010C941301A0
:100090000C9413010C9413010C9413010C94130190
:1000A0000C9413010C9413010C9413010C94130180
:1000B0000C9413010C9413010C9413010C942D0453
:1000C0000C9413010C9413010C9413010C94130160
:1000D0000C9413010C9413010C9413010C94130150
:1000E0000C9413010C9413010C9413010C94130140
:1000F0000C9413010C9413010C9413010C94130130
:100100000C943A050C9413010C9413010C941301F4
:100110000C9413010C9413010C9413010C9413010F
:100120000C9413010C9413010C9413010C941301FF
:100130000C9413010C9413010C9413010C941301EF
:100140000C9413010C9413010C9413010C941301DF
:100150000C9413010C9413010C9413010C941301CF
:100160000C9413010C9413010C9413010C941301BF
:100170000C9413010C9413010C9413010C941301AF
:100180000C9413010C9413010C9413010C9413019F
:100190000C9413010C9413010C9413010C9413018F
:1001A0000C9413010C9413010C9413010C9413017F
:1001B0000C9413010C9413010C9413010C9413016F
:1001C0000C9413010C9413010C9413010C9413015F
:1001D0000C9413010C9413010C9413010C9444041B
:1001E0000C9413010C94130111241FBECFEFDFE216
:1001F000DEBFCDBF10E2A0E0B0E2ECEBF8E100E042
:100200000BBF02C007900D92A032B107D9F710E2E0
:10021000A0E2B0E201C01D92A83BB107E1F70E9445
:100220001F060C945C0C0C9421040F932FB7F894C8
:100230001BBEFC0108ED04BF60832FBF0F91089522
:10024000CF93C82F8A3019F48DE00E94200180914D
:10025000A10B85FFFCCFC093A00B80E090E0CF9175
:10026000089580912C2090E284FF03C0909345066E
:1002700002C09093460690E483FF03C09093450626
:1002800002C09093460690E882FF03C09093450613
:1002900002C09093460691E081FF03C090936506EB
:1002A00002C09093660680FF04C082E080936506DA
:1002B00003C082E08093660680912B2094E087FF44
:1002C00003C09093650602C09093660698E086FF8F
:1002D00003C09093650602C09093660690E185FF87
:1002E00003C09093650602C09093660690E284FF77
:1002F00003C09093650602C09093660690E483FF66
:1003000003C09093650602C09093660690E882FF52
:1003100003C09093650602C09093660691E081FF4A
:1003200003C09093850602C09093860680FF04C0A8
:1003300082E08093850603C082E0809386068091E8
:100340002A2080FD02C02FEF01C02EEF81FD2D7FFE
:1003500082FD2B7F83FD277F84FD2F7E85FD2F7DF2
:1003600086FD2F7B87FD2F7780E090E030E070E8FE
:1003700060E4A901082E02C0559547950A94E2F75A
:1003800040FF03C07093050602C07093060640E468
:10039000609305066093060601968830910549F73B
:1003A00080E880930506409305064093060608956D
:1003B000CF93C091A920C1110FC06EEE72E080E012
:1003C0000E94E40588E180932C2085E080932B2017
:1003D0000E94310181E031C0C130B1F480E00E945F
:1003E000F905882309F40DC26EEE72E080E00E94E8
:1003F000E4058EE180932C20C2E0C0932B200E9464
:100400003101C093A920FDC1C230D1F480E00E9427
:10041000F905882309F4F5C16EEE72E080E00E94D0
:10042000E40587E080932C2084E880932B2081E0F2
:1004300080932A200E94310183E08093A920E1C1AA
:10044000C330C1F480E00E94F905882309F4D9C1C2
:100450006EEE72E080E00E94E40581E080932C2043
:1004600080EE80932B2082E080932A200E9431012D
:1004700084E0E3CFC430B1F480E00E94F905882322
:1004800009F4BFC16EEE72E080E00E94E4051092B4
:100490002C208CE780932B20C0932A200E943101CE
:1004A00085E0CBCFC530A9F480E00E94F905882310
:1004B00009F4A7C16EEE72E080E00E94E40588E1D5
:1004C00080932B2088E080932A200E94310186E0CF
:1004D000B4CFC630A9F480E00E94F905882309F45E
:1004E00090C16EEE72E080E00E94E40584E08093AB
:1004F0002B2080EF80932A200E94310187E09DCF3E
:10050000C730F1F480E00E94F905882309F479C12D
:1005100067E771E080E00E94E40560EA7FE081E047
:100520000E94E40510922C2010922B2010922A2079
:100530000E943101109227201092262088E07DCF62
:10054000C83009F05EC180912C20809325208091D5
:100550002B208093242080912A208093232080E0E8
:100560000E94F905882309F44EC0809127208F5FEF
:10057000809327208530D8F490912A209F70909303
:100580002A208823D9F1292F206820932A2081301E
:10059000A9F1292F206C20932A20823079F1292F6C
:1005A000206E20932A20843049F5906F1AC089303C
:1005B000D8F490912A20292F2F77206720932A2082
:1005C0008530E1F0292F2F73206320932A20863075
:1005D000A9F0292F2F71206120932A20883071F4EF
:1005E0009F7090932A200AC08D3030F480912A2089
:1005F0008F7080932A2002C01092272067E771E055
:1006000080E00E94E40581E00E94F905882311F151
:10061000809126208F5F843018F48093262002C0BA
:100620001092262080912B208C7F80932B209091FC
:10063000262090FF03C0826080932B2091FF05C08D
:1006400080912B20816080932B2060EA7FE081E005
:100650000E94E40580913D2090913E2040912B2006
:1006600092FF02C0426007C02091392030913A20A9
:1006700032FF03C04D7F40932B2040912B2093FFEE
:1006800002C0416007C02091392030913A2033FFE9
:1006900003C04E7F40932B2010922C2020912B20C2
:1006A000277020932B2030912A20307F86FD3860E0
:1006B00030932A2087FF05C030912A203460309380
:1006C0002A2090FF05C030912A20326030932A20E2
:1006D00091FF05C030912A20316030932A2080FF9D
:1006E00003C030E130932C2081FF05C030912C20D5
:1006F000386030932C2082FF05C030912C2034606C
:1007000030932C2083FF05C030912C203260309331
:100710002C2084FF05C030912C20316030932C2098
:1007200085FF03C0206820932B20209133202130A7
:1007300059F4209135203091362053E03695279595
:100740005A95E1F72093282020913420213059F444
:10075000209137203091382043E0369527954A95EF
:10076000E1F72093292020912820263420F420919D
:100770002B20206405C02D3828F020912B202062EA
:1007800020932B2020912920243620F420912B2007
:10079000206105C0233828F020912B202860209369
:1007A0002B2094FF0AC068EB7BE082E00E94E40506
:1007B00080912B20846080932B2082E00E94F90599
:1007C000882329F080912B208B7F80932B20809190
:1007D0003D2090913E2095FD1092A92090912520DA
:1007E00080912C2098130BC09091242080912B2075
:1007F000981305C09091232080912A2098130E947D
:1008000031019FB7F89480913F209FBF882381F0EA
:1008100010922C2010922B2010922A200E9431013D
:100820008AE994E08093AA209093AB201092A920AB
:10083000CF9108958093AA209093AB201092A92085
:1008400008951F920F920FB60F9211240C9400007E
:100850000F900FBE0F901F9018951F920F920FB61A
:100860000F9211248F939F938091AC209091AD2093
:1008700001968093AC209093AD209F918F910F9023
:100880000FBE0F901F9018951F920F920FB60F92E8
:1008900011240BB60F928F93EF93FF9380913F201B
:1008A0008034C8F4E0914120F0E08091A00BED5B32
:1008B000FF4D8083809141208F5F80934120809104
:1008C0004120803410F01092412080913F208F5FB2
:1008D00080933F2004C08091A00B80934020FF9123
:1008E000EF918F910F900BBE0F900FBE0F901F9046
:1008F00018952FB7F89480913F208823C1F0E0919C
:100900004220F0E0ED5BFF4D8081909142209F5F9F
:100910009093422090914220903410F01092422007
:1009200090913F20915090933F202FBF08952FBF6B
:1009300080E008950F931F93CF93DF93809133202E
:10094000813059F4809135209091362073E096954E
:1009500087957A95E1F78093282080913420813023
:1009600059F4809137209091382063E096958795CF
:100970006A95E1F78093292084E00E94F9058111AE
:1009800010922220C0E0D2E011E003E09FB7F8947B
:1009900080913F209FBF882339F1C11127C067E7AD
:1009A00071E084E00E94E4050E9479049091222085
:1009B000913081F050F0923091F0933039F780937C
:1009C0002A2010922220C1E0E1CF8234F9F6109360
:1009D0002220DCCF80932C20D0932220D7CF80936D
:1009E0002B2000932220D2CFCC2311F10E94310181
:1009F0008091832081111CC081E4809385208091A7
:100A00003D2090913E2090938620809387201092E5
:100A10008820109289208091292080938A208091BB
:100A2000282080938B2087E080938320109284205D
:100A3000809183208823C9F0809183208823A9F0A6
:100A40000E944405882389F0E091842081E08E0F84
:100A500080938420F0E0EB57FF4D80810E944B058E
:100A600080918320815080938320DF91CF911F91CB
:100A70000F9108951F920F920FB60F9211240F90AD
:100A80000FBE0F901F901895E0EAFBE0818185FB77
:100A9000882780F908959091A10B95FFFCCF809352
:100AA000A00B08958091A00B0895E0EAFBE08181FE
:100AB000881F8827881F08950E9455058823E1F321
:100AC00008950E945505882319F08091A00BF9CF55
:100AD0000895E0EAFBE014820895E0E7F0E0868103
:100AE0008F7E8683E0EAF6E088E08583818384E078
:100AF0008283E0EAFBE01482178280E486838481AB
:100B000084608483138283E0858384818861848305
:100B10000C946105E0ECF9E08281881F8827881F2A
:100B200008958093C3098091C20987FFFCCF80910B
:100B3000C3090895CF93DF9300D0CDB7DEB7898383
:100B40009A8389819A819C012150310929833A83B2
:100B5000892B59F000000000000000000000000098
:100B60000000000000000000ECCF0F900F90DF911C
:100B7000CF910895E0E6F6E080EF868380EB8183F5
:100B800080E48283A0E7B0E014968C911497877F6D
:100B900014968C9388E1868B80E18583E0ECF9E004
:100BA00011828EE7808308952FB7F894E82FF0E044
:100BB0008091AC209091AD20EE0FFF1FE156FF4DCC
:100BC000808391832FBF08954FB7F89490E02091D0
:100BD000AC203091AD20880F991FFC01E156FF4DEC
:100BE00020833183FC01EB56FF4D608371834FBF3F
:100BF00008956FB7F8942091AC203091AD2090E02B
:100C0000880F991FFC01E156FF4D40815181FC0185
:100C1000EB56FF4D80819181241B350B6FBF281748
:100C2000390710F081E0089580E00895E82FF0E0A2
:100C3000EE0FFF1FEB56FF4D108211820895F894BE
:100C400080EE80934606809341068FEF8093660680
:100C50008093610683E0809386068093810680EF0F
:100C6000809306068093010680E48093060680E860
:100C70008093050600000000000000000000000056
:100C8000000000000000000084E190E420E8909360
:100C90000606000000000000000000000000000048
:100CA0000000000000002093050600000000000086
:100CB0000000000000000000000000000000909311
:100CC0000506000000000000000000000000000019
:100CD000000000000000815009F0D9CF80E480932B
:100CE000060680E880930506109252001092550087
:100CF000109256001092530089E08093500080912A
:100D0000510083FFFCCF60E081E490E00E94150178
:100D100063E080E490E00E94150184E0809343004A
:100D200061E083E590E00E941501809150008E7F84
:100D30008093500061E086E990E00E9415010E94D6
:100D40006D058FB7F89410923F20109241201092B9
:100D50004220109284201092832090E29093A30B63
:100D60008FBF809171008D7F809371008FE08093A1
:100D7000020680E1809301029093020217E0109333
:100D8000040282E08093200283E18093210210928A
:100D90002202C1E0C093000210922E2010922F2058
:100DA000109230201092312010922D201092352078
:100DB0001092362010923320109237201092382053
:100DC000109234201092322080912002806880930B
:100DD0002002DFEFD0932206D093B00088E5809305
:100DE00030069FE19093420680935006809351060F
:100DF00098E190935206909353068093540694E0A2
:100E0000909382068093920610923D2010923E208D
:100E100010923B2010923C206EE270E083E00E9432
:100E2000E4051092AC201092AD20809175008E7F69
:100E3000809375001092280A1092290A1092200AB5
:100E40001092210A8AE09AE18093260A9093270A59
:100E50001092010AD0930C0AC093060A1092070A56
:100E6000C093000A60E070E080E291E00E941A08FE
:100E70001093A20078948FE38093780087E090E24B
:100E80009F938F9383E190E29F938F930E946508D5
:100E900088ED91E08093AA209093AB201092A92036
:100EA0000F900F900F900F90D1E014E0C2E003E19B
:100EB0007BE0F72E10923320109234208091230291
:100EC00080FF73C080911002909111022091002048
:100ED000222321F021502093002067C097FF02C0F9
:100EE00080E090E0AA2797FDA095BA2F40912E2090
:100EF00050912F206091302070913120840F951FE8
:100F0000A61FB71F80932E2090932F20A0933020F0
:100F1000B093312020912D202F5F20932D20283059
:100F2000D0F140913220242F30E0F901EE0FFF1F65
:100F3000EB5CFF4D63E0B695A795979587956A950D
:100F4000D1F780839183F901ED5CFF4DD08310923E
:100F50002D201093002010922E2010922F201092FE
:100F600030201092312081E0840F823018F4809379
:100F7000322002C01092322080913220882339F032
:100F8000813049F4C0932002F092210204C0C09342
:100F9000200200932102809123028160809323022A
:100FA0008091200280688093200280913D20909162
:100FB0003E20809320209093212083E00E94F90519
:100FC0008823C9F080912806209148062F7190E06F
:100FD000922B80933D2090933E202091880622FF03
:100FE00005C0906280933D2090933E206EE270E0B9
:100FF00083E00E94E40540912020509121208091BF
:101000003D2090913E209A01209530952823392348
:1010100020933B2030933C2080959095842395230A
:101020008093392090933A20E091AA20F091AB2050
:10103000099540CF0F931F93CF93DF93EC018B0162
:10104000009731F46115710519F480E090E038C023
:101050006EE070E081E090E00E946C0AFC01009775
:10106000A1F380E883830115110571F002871387CE
:1010700081E883838091AE209091AF20892B21F469
:10108000E093AE20F093AF202097C9F0C087D187BE
:101090008381826083838091B0209091B120892BDD
:1010A00071F4E093B020F093B1208091B220909140
:1010B000B320892B21F4E093B220F093B320CF0129
:1010C000DF91CF911F910F910895CF93DF93CDB70B
:1010D000DEB7FE01359661917191AF018091B0202C
:1010E0009091B1200E947708DF91CF9108952F92BF
:1010F0003F924F925F926F927F928F929F92AF92A8
:10110000BF92CF92DF92EF92FF920F931F93CF93F4
:10111000DF93CDB7DEB72C97CDBFDEBF7C016B016F
:101120008A01FC0116821782838181FFBDC1CE0135
:1011300001964C01F7019381F60193FD859193FF90
:1011400081916F01882309F4ABC1853239F493FD95
:10115000859193FF81916F01853229F4B70190E069
:101160000E94CC0BE7CF512C312C20E02032A0F490
:101170008B3269F030F4803259F0833269F42061A7
:101180002CC08D3239F0803339F4216026C02260C2
:10119000246023C0286021C027FD27C030ED380F10
:1011A0003A3078F426FF06C0FAE05F9E300D112435
:1011B000532E13C08AE0389E300D1124332E206246
:1011C0000CC08E3221F426FD6BC1206406C08C3623
:1011D00011F4206802C0883641F4F60193FD859130
:1011E00093FF81916F018111C1CF982F9F7D9554FD
:1011F000933028F40C5F1F4FFFE3F9830DC0833653
:1012000031F0833771F0833509F05BC022C0F801FB
:10121000808189830E5F1F4F44244394512C5401D5
:1012200015C03801F2E06F0E711CF801A080B1808A
:1012300026FF03C0652D70E002C06FEF7FEFC50190
:101240002C870E94C10B2C0183012C852F77222E25
:1012500017C03801F2E06F0E711CF801A080B18058
:1012600026FF03C0652D70E002C06FEF7FEFC50160
:101270002C870E94AF0B2C012C852068222E830125
:1012800023FC1BC0832D90E048165906B0F4B7012B
:1012900080E290E00E94CC0B3A94F4CFF50127FC59
:1012A000859127FE81915F01B70190E00E94CC0BF0
:1012B00031103A94F1E04F1A51084114510471F77A
:1012C000E5C0843611F0893639F5F80127FF07C0EB
:1012D00060817181828193810C5F1F4F08C06081A2
:1012E0007181882777FD8095982F0E5F1F4F2F768D
:1012F000B22E97FF09C090958095709561957F4FAC
:101300008F4F9F4F2068B22E2AE030E0A4010E9448
:10131000FE0BA82EA81844C0853729F42F7EB22EC4
:101320002AE030E025C0F22FF97FBF2E8F36C1F0C2
:1013300018F4883579F0B4C0803719F0883721F077
:10134000AFC02F2F2061B22EB4FE0DC08B2D846054
:10135000B82E09C024FF0AC09F2F9660B92E06C080
:1013600028E030E005C020E130E002C020E132E0BA
:10137000F801B7FE07C060817181828193810C5FA3
:101380001F4F06C06081718180E090E00E5F1F4FAB
:10139000A4010E94FE0BA82EA818FB2DFF77BF2EDC
:1013A000B6FE0BC02B2D2E7FA51450F4B4FE0AC040
:1013B000B2FC08C02B2D2E7E05C07A2C2B2D03C02D
:1013C0007A2C01C0752C24FF0DC0FE01EA0DF11D21
:1013D0008081803311F4297E09C022FF06C07394F6
:1013E000739404C0822F867809F0739423FD13C090
:1013F00020FF06C05A2C731418F4530C5718732C82
:10140000731468F4B70180E290E02C870E94CC0B43
:1014100073942C85F5CF731410F4371801C0312C58
:1014200024FF12C0B70180E390E02C870E94CC0B10
:101430002C8522FF17C021FF03C088E590E002C081
:1014400088E790E0B7010CC0822F867859F021FD23
:1014500002C080E201C08BE227FD8DE2B70190E07F
:101460000E94CC0BA51438F4B70180E390E00E94F1
:10147000CC0B5A94F7CFAA94F401EA0DF11D8081A8
:10148000B70190E00E94CC0BA110F5CF332009F4F6
:1014900051CEB70180E290E00E94CC0B3A94F6CF97
:1014A000F7018681978102C08FEF9FEF2C96CDBF09
:1014B000DEBFDF91CF911F910F91FF90EF90DF90F2
:1014C000CF90BF90AF909F908F907F906F905F90E4
:1014D0004F903F902F9008950F931F93CF93DF93DA
:1014E000869F8001879F100D969F100D1124C801C3
:1014F0000E94880AEC01009729F0A80160E070E0E2
:101500000E94BA0BCE01DF91CF911F910F910895E8
:10151000CF93DF938230910510F482E090E0E09168
:10152000B620F091B72020E030E0A0E0B0E03097A6
:1015300039F14081518148175907B8F048175907C8
:1015400071F482819381109729F012968D939C9368
:1015500013972CC08093B6209093B72027C02115F5
:10156000310531F04217530718F0A901DB0101C022
:10157000EF019A01BD01DF010280F381E02DD7CF99
:1015800021153105F9F0281B390B2430310580F481
:101590008A819B816115710521F0FB018283938310
:1015A00004C08093B6209093B720FE01329644C0C9
:1015B000FE01E20FF31F819391932250310928839A
:1015C00039833AC02091B4203091B520232B41F4C7
:1015D00020910320309104202093B4203093B52033
:1015E00020910120309102202115310541F42DB7C1
:1015F0003EB74091052050910620241B350BE09109
:10160000B420F091B520E217F307A0F42E1B3F0B96
:101610002817390778F0AC014E5F5F4F2417350764
:1016200048F04E0F5F1F4093B4205093B520819334
:10163000919302C0E0E0F0E0CF01DF91CF910895F7
:10164000CF93DF93009709F487C0FC013297128291
:101650001382C091B620D091B720209781F42081C9
:101660003181280F391F8091B4209091B5208217C5
:10167000930779F5E093B420F093B5206DC0DE01B7
:1016800020E030E0AE17BF0750F412964D915C9108
:1016900013979D014115510509F1DA01F3CFA2839A
:1016A000B38340815181840F951F8A179B0771F482
:1016B0008D919C911197840F951F02968083918341
:1016C00012968D919C9113978283938321153105F6
:1016D00029F4E093B620F093B7203EC0D9011296CA
:1016E000ED93FC9313974D915D91A40FB51FEA17ED
:1016F000FB0779F480819181840F951F0296D901AF
:101700008D939C9311978281938112968D939C93D4
:101710001397E0E0F0E08A819B81009719F0FE01C9
:10172000EC01F9CFCE01029628813981820F931FF7
:101730002091B4203091B5202817390769F43097EB
:1017400029F41092B6201092B72002C012821382A0
:10175000C093B420D093B520DF91CF910895FC01C0
:101760000590615070400110D8F7809590958E0FCC
:101770009F1F0895DC0101C06D9341505040E0F778
:101780000895FC016150704001900110D8F78095D8
:1017900090958E0F9F1F08950F931F93CF93DF9304
:1017A000182F092FEB018B8181FD03C08FEF9FEF75
:1017B00020C082FF10C04E815F812C813D81421785
:1017C00053077CF4E881F9819F012F5F3F4F288305
:1017D0003983108306C0E885F985812F0995892B07
:1017E00029F72E813F812F5F3F4F2E833F83812F2B
:1017F000902FDF91CF911F910F910895FA01AA27A1
:10180000283051F1203181F1E8946F936E7F6E5F43
:101810007F4F8F4F9F4FAF4FB1E03ED0B4E03CD0F1
:10182000670F781F891F9A1FA11D680F791F8A1FD4
:10183000911DA11D6A0F711D811D911DA11D20D03B
:1018400009F468943F912AE0269F11243019305DF5
:101850003193DEF6CF010895462F4770405D4193E6
:10186000B3E00FD0C9F7F6CF462F4F70405D4A3333
:1018700018F0495D31FD4052419302D0A9F7EACFFB
:10188000B4E0A6959795879577956795BA95C9F72A
:1018900000976105710508959B01AC010A2E06941D
:1018A0005795479537952795BA95C9F7620F731FD6
:0C18B000841F951FA01D0895F894FFCF21
:1018BC00040000B8202000536570202038203230FE
:1018CC003134000A49206C697665212025730A00A1
:00000001FF
